:020000040800F2
:10000000106100203902000881240008B520000892
:100010007D240008E5030008112700080000000007
:10002000000000000000000000000000892400081B
:100030001504000800000000852400088D24000835
:10004000530200085302000853020008530200083C
:10005000530200085302000853020008530200082C
:10006000530200085302000853020008530200081C
:10007000530200085302000853020008530200080C
:100080005302000853020008530200080000000059
:100090000000000000000000000000005302000803
:1000A00053020008530200085302000853020008DC
:1000B00053020008530200085302000853020008CC
:1000C00053020008530200085302000853020008BC
:1000D0005302000853020008530200080000000009
:1000E0001904000853020008530200080000000031
:1000F00000000000000000000000000053020008A3
:1001000000000000530200085302000853020008D8
:1001100000000000000000000000000000000000DF
:10012000530200085302000853020008530200085B
:10013000E9030008000000000000000000000000CB
:100140000000000000000000000000005302000852
:10015000530200085302000853020008530200082B
:1001600053020008530200080000000000000000D5
:10017000000000000000000000000000000000007F
:100180000000000053020008000000000000000012
:10019000530200085302000800F002F800F03CF897
:1001A0000AA090E8000C82448344AAF10107DA45D2
:1001B00001D100F031F8AFF2090EBAE80F0013F0E8
:1001C000010F18BFFB1A43F0010318471C3E000043
:1001D0003C3E0000103A24BF78C878C1FAD85207D4
:1001E00024BF30C830C144BF04680C6070470000B1
:1001F0000023002400250026103A28BF78C1FBD830
:10020000520728BF30C148BF0B6070471FB503F0CD
:10021000CDFE1FBD10B510BD00F0A9F81146FFF7C7
:10022000F5FF02F077FA00F0C7F803B4FFF7F2FF2A
:1002300003BC00F0CFF80000094880470948004798
:10024000FEE7FEE7FEE7FEE7FEE7FEE7FEE7FEE786
:10025000FEE7FEE704480549054A064B70470000E3
:100260003D25000899010008105B00201061002066
:10027000105D0020105D002053EA020C00F0698040
:100280002DE9F04B4FF00006002B1FBFB3FA83F5AA
:1002900003FA05F424FA05F65E4012BF1643B2FADB
:1002A00082F502FA05F4C5F120051EBF22FA05FC0D
:1002B00044EA0C04203556EA044C4FEA144418BFB3
:1002C000641C4FF000084FF00009904271EB030CE2
:1002D00039D3002919BFB1FA81F701FA07F6B0FA4C
:1002E00080F700FA07F6C7F120071EBF20FA07FCC7
:1002F00046EA0C062037B6FBF4FCA7EB0507103FD7
:1003000007F01F0BCBF120062CFA06F60CFA0BFBBC
:1003100044BFB3460026202FA4BF5E464FF0000B1B
:100320005BEA060C08BF4FF0010B19EB0B0948EB19
:100330000608ABFB027C06FB02CC0BFB03CCC01B0C
:1003400071EB0C01C1E70B46024641464846BDE849
:10035000F08B13B5084318BF4FF0FF300146AFF3E1
:100360000080BDE81C407047704770477047754675
:1003700000F02CF8AE4605006946534620F0070011
:10038000854618B020B5FFF765FFBDE820404FF067
:1003900000064FF000074FF000084FF0000BAC468E
:1003A000ACE8C009ACE8C009ACE8C009ACE8C009D9
:1003B00021F007018D46704710B50446AFF3008069
:1003C0002046BDE81040FFF730BF000000487047EE
:1003D0007400002001491820ABBEFEE72600020091
:1003E00070470000FEE7000040F2E000C2F20000AB
:1003F00000F02EB840F2E820C2F2000001210170A6
:1004000040F24010C2F200000068C16821F480414F
:10041000C1607047704700004FF4006000F068BA98
:10042000EFF3108072B600BFFEE7000090F83510C1
:10043000022909D1052180F835100068016821F0F2
:100440000101016000207047802141650120704753
:10045000F0B581B004460020009040F25C00C2F28A
:1004600000000268D4E9166048F2B5133768082125
:10047000C1F64E3381403942A2FB03250CD02268DD
:1004800013685B0708D5136823F004031360B16099
:10049000616D41F00101616501218140394208D05F
:1004A00022685269120604D5B160616D41F0020103
:1004B000616504218140394208D0226812689207A0
:1004C00004D5B160616D41F0040161651021814086
:1004D000394217D020680268120713D5B16002684C
:1004E0000168520308D4C90508D4016821F0080145
:1004F0000160216C21B905E008033FD4216C09B1EA
:1005000020468847E16D202000FA01F23A4241D0AE
:1005100020680368DB063DD5B26094F83530026888
:10052000052B1BD122F016020260426922F08002E4
:100530004261226C0AB9A26C1AB1026822F0080268
:1005400002603F208840B060012084F83500216DB2
:100550000020002984F8340052D157E0016852038A
:1005600010D4C90512D4016821F0100101600120E6
:1005700084F83500002084F8340007E0A16C0029DD
:10058000BED1BFE7080301D4616C00E0E16B09B1A3
:1005900020468847606DC8B3606DC0072ED0052027
:1005A00084F835002068A90A026822F0010202607E
:1005B000009A01328A4200921AD80268D20717D0F4
:1005C000009A01328A42009212D80268D2070FD0F4
:1005D000009A01328A4200920AD80268D20707D0F4
:1005E000009A01328A42009202D80268D207DFD113
:1005F000012084F83500002084F83400E16C29B132
:10060000204601B0BDE8F040084700BF01B0F0BD92
:100610002DE9F041044600F061FA002C4ED0054669
:10062000022084F835000020216884F8340008682E
:1006300020F0010008600868C00708D000F04EFAFA
:10064000401B05286CD821680868C007F6D10868E7
:1006500048F23F02CFF21002D4E90135024004F122
:100660000C0E9EE8C1511A432A43104330433843CD
:1006700040EA0800626A40EA0C00042A40EA0E03DD
:1006800020D1D4E90A5E206B4EEA030210430860D1
:100690004869BEF1000F20F0030040EA050040F079
:1006A000040C15D0B8F5005F42D0B8F1000F51D15D
:1006B000022D52D0012D47D055B94EE00120BDE8A2
:1006C000F08100BF0B60486920F0070040EA020C8F
:1006D0006FF00F004AF6AB2250FA81F0CAF6AA2258
:1006E000A0FB02231A0943F6DE73C0F600039A5CEE
:1006F00040F2FF335F284FF03F00C1F814C021EAF9
:10070000030100FA02F088BF0431C4E916128860C0
:10071000002301220020636584F83520BDE8F081C4
:10072000032220230320636584F83520BDE8F0818F
:10073000032DCDD8012240230120DFE805F0030E70
:10074000030500BFE7E700BFAEF1C070B0FA80F06C
:10075000400904E0032D04D3BAD1CEF30060002891
:10076000B6D0012240230120636584F83520BDE81E
:10077000F081000090F83430012B04BF0220704754
:1007800090F83530012B0BD1052909D8DFE801F0AD
:10079000040E12161A1E00BF00F13C0118E000BF43
:1007A0000121002280F834200846704700F1400102
:1007B0000EE000BF00F144010AE000BF00F1480173
:1007C00006E000BF00F14C0102E000BF00F1500163
:1007D0000A600021002280F834200846704700009B
:1007E00070B590F834C0BCF1010F46D04FF0010C49
:1007F00080F834C0D0F858E090F835C0BCF1010F53
:1008000038D14FF0020C80F835C04FF0000CC0F822
:1008100054C0D0F800C08468056CC06DDCF800607E
:10082000402C26F48026CCF80060CCF804300B462F
:1008300004BF13460A463F2101FA00F0CCF8083005
:10084000CCF80C20CEF80800DCF8000040F01600D0
:10085000CCF800002DB1DCF8000040F00800CCF826
:100860000000DCF8000040F00100CCF8000000209F
:1008700070BD00BF002180F83410022070BD000060
:10088000B0B5044600F02AF9054640F25400C2F221
:1008900000000078611C18BF044400BF00F01EF97E
:1008A000401BA042FAD3B0BDB0F5006F18BF70472F
:1008B00080B540F24010C2F20000D0F800C040F213
:1008C000EC22DCF80C0040F2104140F4804E40F283
:1008D000E000C2F20000C2F20002C4F2020145F6DA
:1008E0002003CCF80CE0BDE88040FFF779BF0000A2
:1008F00043F61441C4F201010A68024214BF0860C1
:100900007047FFF7D1BF00002DE9F04F82B000F132
:100910003E4241F2000502F1FF77C4F202050722D0
:100920004FEAB726A84208BF0422042E38BF4FEA78
:10093000B7224FF0010A002400274FF00008009270
:1009400008E000BF023708F10108202F04F1040479
:1009500000F0B4800E680AFA08F916EA090FF1D01F
:10096000D1F804A00AF0030BABF10106012E17D851
:100970000322866802FA07FECA6826EA0E06BA4013
:10098000324382604268CAF3001522EA090205FA7E
:1009900008F54FEA480C6FEA0E062A4342600BE066
:1009A0000322BA40D643BBF1030FBC4604D1BC4678
:1009B0004FF0030B22E000BFC2688D68324005FA99
:1009C0000CF52A43BBF1020FC26017D16FF003028E
:1009D00002EA5802024404F01C030F25D2F820E07A
:1009E00005FA03FA0D692EEA0A0E05FA03F343EA43
:1009F0000E031362D1F804A00AF0030B02680BFA8D
:100A00000CF332401A431AF4403F4FF0010A0260DF
:100A100098D0002243F644030192C4F202031A68FC
:100A200043F6004E42F480421A601A68C4F2010E86
:100A300002F480420192019A28F003024FF6084C1A
:100A40007244CFF6FF7C52F80C3004F00C060F25F0
:100A5000B540AB43009D05FA06F6334342F80C302F
:100A6000DEF808204B6842EA090643F60C4CDD022A
:100A700058BF22EA0906CEF80860C4F2010CDCF87F
:100A800000209D0242EA090658BF22EA0906CCF876
:100A90000060DEF804209D0342EA090658BF22EAFE
:100AA0000906CEF80460DEF80020DB0342EA0906FE
:100AB00058BF22EA0906CEF8006043E702B0BDE85D
:100AC000F08F00000069084018BF01207047000047
:100AD000002A08BF090481617047000045F60C3008
:100AE000C2F200000068704740F2540045F60C3135
:100AF000C2F20000C2F2000100780A6810440860E7
:100B00007047000080B543F60040C4F2020001685F
:100B100041F400710160016841F480610160016885
:100B200041F480710160032000F084F80F2000F090
:100B300005F800F027F8002080BD000070B540F2F5
:100B40005406C2F2000640F25C013278C2F20001A3
:100B50004FF47A730968B3FBF2F20446B1FBF2F189
:100B6000084600F041FB0F2C4FF0010508D838B9BA
:100B70004FF0FF3021460022002500F02FF874606E
:100B8000284670BD82B0002043F640010190C4F2B7
:100B900002014A6842F480424A604A6802F4804294
:100BA0000192019A0090086840F08050086008683F
:100BB00000F080500090009802B07047002848BFB5
:100BC000704700F01F01012202FA01F14EF20012FB
:100BD0004009CEF2000242F82010704710B54EF6E0
:100BE0000C5CCEF2000CDCF80030C3F3022E8EF069
:100BF0000704042C28BF0424BEF103034FF0FF3E7A
:100C00000EFA04F438BF0023A14399400EFA03F30F
:100C10009A43114300F00F02043A624409010C3276
:100C200000F16043B0F1FF3FC8BF03F564421170AB
:100C300010BD00004EF60C51CEF200010A684FF6CE
:100C4000FF031A4060F30A2242F0806040F0FD701A
:100C5000086070472DE9F041002800F08B8043F6D2
:100C60000808C4F202080446D8F8F8030D4600F05C
:100C70000700884207D288F8F853D8F8F80300F044
:100C80000700A84276D12068810717D5410705D50E
:100C9000D8F8001041F4E051C8F80010010705D55C
:100CA000D8F8001041F46041C8F80010D8F80010DE
:100CB000A26821F0F0011143C8F80010C0073FD12D
:100CC000D8F8F80300F00700A84207D988F8F853CD
:100CD000D8F8F80300F00700A8424BD1206841077C
:100CE00007D5D8F80010E26821F4E0511143C8F8A4
:100CF0000010000708D5D8F80000216920F46040F2
:100D000040EAC100C8F8000000F07CF8D8F80010F4
:100D100043F6C672C1F30311C0F60002515C40F203
:100D20005C0220FA01F140F25800C2F200000068B3
:100D3000C2F200021160FFF701FF0020BDE8F08160
:100D40006068811E022907D258F8081C89015CBF1F
:100D50000120BDE8F08111E0012807D158F8081CF6
:100D600089035CBF0120BDE8F08107E058F8081C4A
:100D7000890703D40120BDE8F08100BFD8F8001036
:100D800021F003010843C8F80000FFF7A7FE06465C
:100D900041F28837D8F80000616800F00C00B0EB31
:100DA000810F8DD0FFF79AFE801BB842F2D9032045
:100DB000BDE8F08140F25C0043F60801C2F2000099
:100DC000C4F202010068096843F6D672C1F38221B9
:100DD000C0F60002515CC8407047000040F25C0061
:100DE00043F60801C2F20000C4F20201006809687B
:100DF00043F6D672C1F34231C0F60002515CC840DE
:100E00007047000010B543F60404C4F202046068A1
:100E100000F00C0008280BD0042819BF42F2004053
:100E2000C0F2F40047F64000C0F27D1010BD00BFD4
:100E3000206821682368490247F64001C0F27D110D
:100E400000F03F02C3F388105CBF42F20041C0F2E1
:100E5000F401A1FB00010023FFF70EFA2168022232
:100E6000C1F3014102EB4101B0FBF1F010BD000004
:100E70002DE9F04182B000286AD00446007843F69C
:100E80000006C007C4F202060BD0B06800F00C00E8
:100E9000042840F0A1803068800302D560680028F3
:100EA00056D0207880071AD5B06810F00C0F09D002
:100EB000B06800F00C00082840F0A880706840027C
:100EC00000F1A4803068800702D5E06801283FD196
:100ED0003068216920F0F80040EAC10030602078D5
:100EE000000739D4207840074ED4A5695DB3B068B7
:100EF00000F00C00082840F0BD80012D28D070685B
:100F0000E16900F480028A4222D1216A00F03F02A6
:100F10008A421DD147F6C071626A0140B1EB821F5F
:100F200016D1A26A0023CFF6FF7303EBC23200F49E
:100F300040316FF30F0291420AD1E16A00F0706014
:100F4000B0EB016F04D1002002B0BDE8F08100BF1A
:100F5000012002B0BDE8F0816069002840F2000085
:100F6000C4F2472076D00121C0F8801EFFF7B6FDFD
:100F7000054600BF706F8007B4D4FFF7AFFD401B7C
:100F80000228F7D9DDE000BF306C10F080580AD19C
:100F900000200190306C40F080503064306C00F0E4
:100FA00080500190019847F20007C4F200073868AA
:100FB000C00541D4386840F480703860FFF78EFD7A
:100FC000054600BF3868C00536D4FFF787FD401BD3
:100FD0000228F7D9B5E000BFB06800F00C0008287F
:100FE00003D1706840023FF556AF6068B0F5803FAE
:100FF00007D0B0F5A02F40F08D80306840F48020FD
:101000003060306840F4803030608DE0E068002867
:1010100052D00020C4F2472001210160FFF75EFD9D
:10102000054600BF306880073FF552AFFFF756FD19
:10103000401B0228F6D984E0A068012805D00528C5
:101040004ED1306F40F004003067306F40F0010047
:1010500030674FE00021C0F8801EFFF73FFD0546D6
:10106000706F80077FF53EAFFFF738FD401B022809
:10107000F6D966E00027C4F2472700203866FFF75C
:101080002DFD022D05460BD1306880015ED5FFF79E
:1010900025FD401B02284FF00300F5D954E700BF9F
:1010A000306880017FF54FAFFFF718FD401B022825
:1010B0004FF00300F4D947E70020C4F24720002195
:1010C0000160FFF70BFD0546306880077FF507AF2D
:1010D000FFF704FD401B02284FF00300F4D933E76B
:1010E000316F002821F001013167316F21F00401D7
:1010F00031674DD0FFF7F2FC054641F2883700BF5B
:10110000306F800756D4FFF7E9FC401BB842F7D98F
:1011100017E000BF3168002821F480313160316868
:1011200021F4802131604FD0FFF7D8FC054600BF85
:10113000306880033FF5B5AEFFF7D0FC401B642854
:10114000F6D9032002B0BDE8F08100BF04F11C0510
:101150002FCD08430021CFF6FF7140EA821001EB4A
:10116000C3316FF30F0140EA05600843706001204E
:101170003866FFF7B3FC0446306880013FF5E3AE04
:10118000FFF7ACFC001B02284FF00300F4D9DBE6AC
:10119000FFF7A4FC054641F2883700BF306F800797
:1011A00008D5FFF79BFC401BB8424FF00300F5D970
:1011B000CAE600BFB8F1000F7FF497AE306C20F0A4
:1011C0008050306491E600BFFFF788FC054600BF01
:1011D000306880037FF565AEFFF780FC401B642814
:1011E0004FF00300F4D9AFE6411E0020B0EB116FC1
:1011F0001CBF012070474EF21002CEF20002516077
:101200004EF62351CEF20001F0230B7007219060BF
:101210001160704710B590F83C20012A4FF002028F
:101220003ED080F83D200268D2F804E0D2F808C031
:101230000C682EF07003234340F6FF34C4F2000420
:10124000A242536010DCB2F1804F1ED040F2004346
:10125000C4F200039A4218D040F60003C4F200031F
:101260009A4212D016E000BF40F60043C4F20003D9
:101270009A420AD044F20003C4F201039A4204D015
:101280000023C4F201039A4204D149682CF0800380
:10129000194391600121002280F83D1080F83C2024
:1012A000104610BD002804BF0120704710B5044649
:1012B00090F83D0028B9002084F83C00204600F05A
:1012C0008FF8022084F83D00206840F2FF73026826
:1012D000C4F2000340F2000C9842C4F2010C1DDD80
:1012E00040F60001C4F20001884220D060451ED0C3
:1012F00040F60041C4F20001884218D04FF6FF7159
:10130000C4F2000188421CDC984225DCB0F1804F19
:101310003AD040F20041C4F2000133E0B0F1804F16
:1013200005D040F20041C4F200018842E6D1A16834
:1013300022F070020A434FF6FF71C4F200018842A6
:10134000E2DD44F2FF31C4F20101884210DC604565
:101350001AD044F2000113E040F60001C4F200018B
:10136000884211D040F60041C4F200010AE000BFFB
:1013700044F60001C4F20101884205D044F2004164
:10138000C4F20101884203D1216922F440720A4368
:10139000A36922F08001D4F804E0E26819436045B3
:1013A0000160C262C0F828E002D16169CCF8301057
:1013B00001214161002084F8461084F83E1084F831
:1013C0003F1084F8401084F8411084F8421084F8EB
:1013D000431084F8441084F8451084F83D1010BD83
:1013E00070B586B00446006840F60001C4F2000102
:1013F000884253D00021C4F2010188425DD1002609
:1014000043F630050196C4F20205686901A940F06F
:1014100001006861686900F001000190019801967F
:10142000286840F001002860286800F00100019061
:1014300001984FF4805001900220CDE9020601206E
:1014400005900020C4F202000496FFF75DFA05F54E
:10145000315040F2E005C2F200054FF040614FF418
:10146000806285E843004FF4403005F12003C5E970
:1014700003620421032247C32846C5E90566EE61DD
:101480002E63FFF7C5F8002818BFFEF7C9FFC4E9AF
:101490000C55A563AC6306B070BD00BF0020019081
:1014A00043F63000C4F20200016941F00401016119
:1014B000006900F004000190019806B070BD0000C2
:1014C00090F83D1001291CBF01207047022180F8CF
:1014D0003D10006840F6FF31C4F2000188420FDC85
:1014E000B0F1804F1DD040F20041C4F200018842AB
:1014F00017D040F60001C4F20001884211D017E075
:1015000040F60041C4F2000188420AD044F20001D2
:10151000C4F20101884204D00021C4F201018842D2
:1015200006D1816801F00701062904BF0020704739
:10153000016841F0010101600020704780B590F81A
:101540003C20012A4FF0020200F0C28080F83D20CA
:10155000D0F800C04FF67772DCF8083023EA0202B8
:10156000CCF808200B684F2B28DC1F2B44DD202BE8
:1015700045D0302B43D0402B40F0AC80D1F804E074
:10158000C968DCF82030DCF8202022F00102CCF819
:101590002020DCF8182022F0F00242EA011123F0AA
:1015A0000A0242EA0E02CCF81810CCF82020DCF82F
:1015B000081041F0470121F0300180E06F2B27DD5A
:1015C000B3F5005F48D0B3F5805F7AD0702B40F060
:1015D0008180D1E901E3C968DCF8082043EA0E0301
:1015E00022F47F4243EA01211143CCF80810DCF8D1
:1015F000081041F0770162E00BB1102B6AD1DCF8E2
:10160000081021F07001194341F0070157E000BFB5
:10161000502B35D0602B5DD1D1F804E0C968DCF8DF
:10162000203023F01003CCF82030DCF81830DCF840
:10163000202023F4704322F0A00243EA013142EA61
:101640000E12CCF81810CCF82020DCF8081041F06D
:10165000670121F0100132E0D1E901E3C968DCF84B
:10166000082043EA0E0322F47F4243EA012111439A
:10167000CCF80810DCF8081041F480411FE000BFEE
:10168000D1F804E0C968DCF82030DCF8202022F032
:101690000102CCF82020DCF8182022F0F00242EA07
:1016A000011123F00A0242EA0E02CCF81810CCF81D
:1016B0002020DCF8081041F0570121F02001CCF87F
:1016C00008100022012180F83D10002180F83C1014
:1016D000104680BD0122F5E7002804BF01207047B5
:1016E0002DE9F04F81B0044690F83D00884628B9B6
:1016F000002084F83C00204600F0BAF8022084F86C
:101700003D00206844F20702816840F2FF73914374
:1017100081600268C4F2000340F2000C9842C4F2F7
:10172000010C1DDD40F60001C4F20001884220D00A
:1017300060451ED040F60041C4F20001884218D036
:101740004FF6FF71C4F2000188421CDC984225DC90
:10175000B0F1804F3AD040F20041C4F2000133E0D2
:10176000B0F1804F05D040F20041C4F20001884240
:10177000E6D1A16822F070020A434FF6FF71C4F26D
:1017800000018842E2DD44F2FF31C4F201018842E7
:1017900010DC60451AD044F2000113E040F600016D
:1017A000C4F20001884211D040F60041C4F20001A9
:1017B0000AE000BF44F60001C4F20101884205D0EE
:1017C00044F20041C4F20101884203D1216922F4AC
:1017D00040720A43A36922F080016268E5681943F8
:1017E00060450160C562826202D16169CCF8301047
:1017F0000121416182688369D0F820C0D8E9005E88
:10180000D8E9027B45EA020AD8F818504FF6FF796A
:1018100023EA090347EA05254FF6FC47BD43D8E90B
:10182000077643EA0B03D8F810202B4343EA07233B
:1018300043EA02122CF0AA03D8F8147043EA0E030C
:1018400042EA063243EA0713C0F808A08261036245
:1018500084F8461084F83E1084F83F1084F8421053
:1018600084F8431084F83D10002001B0BDE8F08FEB
:1018700080B586B0006840F20042C4F20002002148
:101880009042CDE90411CDE90211019120D0B0F1CF
:10189000804F44D1002043F630010090C4F2020191
:1018A0000A6942F001020A610A6902F0010200922B
:1018B000009A0090086840F001000860086800F095
:1018C00001000090009848F20200019001201AE007
:1018D00043F630000091C4F20200026942F00202B5
:1018E0000261026902F002020092009A009101680E
:1018F00041F001010160006800F0010000900098D3
:10190000C0200190022002210291002105900020B8
:10191000CDE90311C4F2020001A9FEF7F5FF06B0FC
:1019200080BD00002DE9F04390F83C30012B04BF4E
:101930000220BDE8F0834FEAB202032A3AD8DFE87A
:1019400002F003417DB700BF036800261A6AC4F2A3
:10195000010622F001021A621D6A1A465C6852F8FA
:1019600018CFB3428E68D1F800E025F0020545EAB1
:1019700006050CD1CE68D1E9057824F4407425F031
:101980000C0526F004063C43354344EA08042CF0D9
:10199000730747EA0E075C609F614F6809695F63E0
:1019A0001D629F6947F008079F619F6927F0040740
:1019B0009F61ACE00121002280F83C200846BDE890
:1019C000F08300BF036800261A6AC4F2010622F001
:1019D00010021A621D6A1A46D3F804C052F8184F52
:1019E000B3428E68D1F800E025F0200545EA0615DF
:1019F0000FD1CE68D1E905986FF0400707EA0616C7
:101A00002CF4406725F0C00547EA8907354347EACB
:101A1000880C24F4E64444EA0E27C3F804C09F610E
:101A20004F6809699F631D629F6947F400679F6162
:101A30009F6927F480679F6168E000BF0368002604
:101A40001A6AC4F2010622F480721A621D6A1A46EA
:101A5000D3F804C052F81CEFB3428E680C6825F42A
:101A6000007545EA06250FD1CE68D1E90598360202
:101A700040F2FF47BE432CF4405725F4406547EA47
:101A80000917354347EA081C2EF073072743C3F8AC
:101A900004C0DF614F680969DF631D62DF6947F0D9
:101AA0000807DF61DF6927F00407DF612FE000BF6F
:101AB000036800271A6AC4F2010722F480521A62EE
:101AC0001A46D3F820C05D6852F81C4FD1F800E0E8
:101AD0008E68BB4204D14F6925F4804545EA8715DD
:101AE0002CF4005747EA063724F4E64646EA0E2669
:101AF0005D60DE614E6809691E641F62DF6947F43C
:101B00000067DF61DF6927F48067DF61090213681E
:101B1000194311600021002280F83C200846BDE8EE
:101B2000F0830000002804BF0120704710B5044670
:101B300090F83D0028B9002084F83C00204600F0D1
:101B40008FF8022084F83D00206840F2FF7302689D
:101B5000C4F2000340F2000C9842C4F2010C1DDDF7
:101B600040F60001C4F20001884220D060451ED03A
:101B700040F60041C4F20001884218D04FF6FF71D0
:101B8000C4F2000188421CDC984225DCB0F1804F91
:101B90003AD040F20041C4F2000133E0B0F1804F8E
:101BA00005D040F20041C4F200018842E6D1A168AC
:101BB00022F070020A434FF6FF71C4F2000188421E
:101BC000E2DD44F2FF31C4F20101884210DC6045DD
:101BD0001AD044F2000113E040F60001C4F2000103
:101BE000884211D040F60041C4F200010AE000BF73
:101BF00044F60001C4F20101884205D044F20041DC
:101C0000C4F20101884203D1216922F440720A43DF
:101C1000A36922F08001D4F804E0E268194360452A
:101C20000160C262C0F828E002D16169CCF83010CE
:101C300001214161002084F8461084F83E1084F8A8
:101C40003F1084F8401084F8411084F8421084F862
:101C5000431084F8441084F8451084F83D1010BDFA
:101C600070470000B0B5044690F83C0001284FF0E2
:101C7000020008BFB0BD012584F83C5084F83D0047
:101C8000206800F065FC00284FF0010006D000211C
:101C900084F83D5084F83C10B0BD00BF2068C16896
:101CA00021F04001C160C16821F48041C160002081
:101CB000002184F83D5084F83C10B0BD002804BFDA
:101CC0000120704710B5044690F83D0028B9002067
:101CD00084F83C00204600F021F8242084F83D00E0
:101CE0002068C16821F40051C160204600F09EFCCC
:101CF0002068016921F490410161416921F02A01C4
:101D00004161C16841F40051C1600020202120647C
:101D100084F83D1084F83E1010BD000080B586B0F8
:101D2000006844F20042C4F2000200219042CDE972
:101D30000411CDE90211019122D041F20001C4F257
:101D40000101884244D1002043F630010090C4F2E2
:101D500002014A6942F010024A614A6902F0100227
:101D60000092009A0090086840F00100086008683E
:101D700000F00100009000984FF4C06019E000BF2F
:101D800043F630000091C4F20200026942F40032CE
:101D90000261026902F400320092009A0091016827
:101DA00041F001010160006800F00100009000981E
:101DB0000C20019002200290002003900320049048
:101DC000072005900020C4F2020001A9FEF79CFD47
:101DD00006B080BD90F83E30202B0BD100294FF08B
:101DE000010318BF002A01D11846704790F83C3013
:101DF000012B01D10220704700230363816222215D
:101E00008285C285036480F83E100269016880F80B
:101E10003C301AB1C86840F48070C860486900233B
:101E200040F001004861C86840F02000C8601846D2
:101E3000704700002DE9F04381B0044690F83D0062
:101E400020280DD10F4600294FF0010000F0DD8061
:101E50001646002A00F0D98094F83C00012803D1EE
:101E6000022001B0BDE8F083012084F83C004FF06F
:101E7000000921201D46C4F8409084F83D00FEF77B
:101E80002DFEA684E684A1680646B1F5805F07D1E1
:101E9000206900281CBF38464F46B846074601E077
:101EA0004FF0000884F83C90E18C2068002900F095
:101EB0008B8005F101090AE047B317F8011B416067
:101EC000E18C0139E184E18C002900F07D8001681A
:101ED0000906F1D4B9F1000F0AD0EDB1FEF7FEFD0D
:101EE000801BA84218D8206801680906F6D5E3E7E8
:101EF00001680906E0D4016809065CBF01685FEA71
:101F00000161D9D401680906F2D5D5E738F8021B7A
:101F100000276FF35F21D2E7206850E8030F2168A4
:101F200020F4D07041E80302BAB3206850E8030FF0
:101F3000216820F4D07041E8030272B3206850E8B1
:101F4000030F216820F4D07041E803022AB320680F
:101F500050E8030F216820F4D07041E80302002A02
:101F6000DAD11AE0206850E8050F216820F001005E
:101F700041E80502DAB1206850E8050F216820F039
:101F8000010041E8050292B1206850E8050F216880
:101F900020F0010041E805024AB1206850E8050F31
:101FA000216820F0010041E80502002ADAD1202052
:101FB00084F83D0084F83E00002084F83C000320B3
:101FC00001B0BDE8F08300BF0168490619D4FDB136
:101FD000691C0DD10168490613D4016849065CBF2C
:101FE00001685FEA41610CD401684906F2D508E056
:101FF000FEF774FD801BA8420AD8206800684006DE
:10200000F6D5202084F83D00002001B0BDE8F08323
:10201000206850E8030F216820F4D07041E80302E3
:10202000E2B3206850E8030F216820F4D07041E843
:1020300003029AB3206850E8030F216820F4D0709F
:1020400041E8030252B3206850E8030F216820F4EE
:10205000D07041E80302002ADAD11FE0206850E87E
:10206000050F216820F0010041E80502002A9ED0FA
:10207000206850E8050F216820F0010041E80502C2
:10208000002A3FF494AF206850E8050F216820F043
:10209000010041E80502002A3FF489AF206850E8BA
:1020A000050F216820F0010041E80502002AD5D182
:1020B0007DE70000FEE7000080B582B000200190BF
:1020C00043F63000C4F202000168002241F48001AE
:1020D00001600068002100F48000019001983C201C
:1020E000FEF77CFD3C2002B0BDE88040FEF766BDF7
:1020F000F0B587B0002643F63000CDE905660196BD
:10210000C4F20200016840F2004441F08001016025
:102110000168C4F2020401F0800101910199019665
:102120000168002241F00101016001684FF440574D
:1021300001F00101019101990196016841F002014C
:10214000016000684FF4405100F0020001900198D6
:102150002046FEF7BDFCFF2002ADCDE90206204679
:1021600029460496FEF7D0FB0120CDE90306204660
:10217000294602970596FEF7C7FB4FF400600290D0
:102180004FF48810039002200490A4F58060294643
:10219000FEF7BAFB282000210022FEF71FFD2820B1
:1021A000FEF70CFD07B0F0BD10B588B040F240104E
:1021B00000210024C2F20000C4F20101CDE9004474
:1021C0004FF6FF7280E81600C0E90344C0E90544F9
:1021D000FFF768F8002818BFFEF722F906200390E1
:1021E0007020CDE9040440F24010C2F2000003A9BF
:1021F000CDE90644FFF736FD002818BFFEF710F9B9
:102200000020CDE9000040F24010C2F20000694613
:10221000FFF700F8002818BFFEF702F908B010BD5C
:1022200080B58CB040F288100021C2F200004FF05F
:1022300080424FF6FF73C0E900210122CDE9001171
:10224000C0E9021301618161CDE90321CDE90521D6
:10225000CDE90711CDE909210B9103A9FFF73CFA5C
:10226000002818BFFEF7DCF840F28810C2F2000028
:102270006946FEF7CFFF002818BFFEF7D1F80CB073
:1022800080BD000080B58CB040F2D01040F200421A
:102290000021C2F20000C4F200024FF6FF73C0E951
:1022A00000210122CDE90011C0E902130161816121
:1022B000CDE90321CDE90521CDE90711CDE90921BA
:1022C0000B9103A9FFF708FA002818BFFEF7A8F83A
:1022D00040F2D010C2F200006946FEF79BFF0028D2
:1022E00018BFFEF79DF80CB080BD0000B0B594B0EB
:1022F00040F6000540F21820C4F200050021C2F2A9
:10230000000042F210720E91CDE90C110991CDE955
:102310000711CDE90511CDE90311CDE90111C0E99E
:102320000051C0E9021201618161FEF7BBFF002884
:1023300018BFFEF775F84FF480500B9040F218204C
:10234000C2F200000BA9FFF7F9F8002818BFFEF74A
:1023500067F840F21820C2F20000FFF7E3FB002804
:1023600018BFFEF75DF840F218200024C2F200000A
:1023700008A9CDE90844FEF74DFF002818BFFEF775
:102380004FF86020CDE9010440F21820C2F20000AD
:1023900001A9082203940594FFF7C4FA002818BF86
:1023A000FEF73EF840F21824C2F2000401A92046CC
:1023B0000C22FFF7B7FA002818BFFEF731F82068A3
:1023C000A84201D014B0B0BD002043F630010F90F8
:1023D000C4F202010A6842F002020A60096801F0D0
:1023E00002010F910F994FF440710F910221CDE935
:1023F0001010CDE9120105F5FE300FA9FEF784FAA1
:1024000014B0B0BD80B540F2602041F20001C2F2CC
:102410000000C4F2010100234FF00C0C4FF4E13234
:1024200080E80E00C0E90333C0E905C3C361FFF7CC
:1024300045FC002808BF80BDBDE88040FDF7F0BF27
:1024400080B540F2A42044F20041C2F20000C4F280
:10245000000100234FF00C0C4FF4E13280E80E0035
:10246000C0E90333C0E905C3C361FFF727FC0028B7
:1024700008BF80BDBDE88040FDF7D2BFFEE7000089
:10248000FEE700007047000070470000FEF72CBB1D
:10249000B0B592B0002443F64000CDE90A44CDE93E
:1024A00008440594CDE90344CDE901440094C4F205
:1024B00002000168022541F080510160006800F0CF
:1024C00080500090009847F200000094C4F2000091
:1024D000016841F440410160006800F44040009010
:1024E0000098012006904FF4803007904FF4800050
:1024F0000D900C200E906020CDE90F050420119066
:1025000006A80C95FEF7B4FC20B1EFF3108072B66C
:10251000FEE700BF0F20CDE901054FF48050CDE963
:10252000040401A803210394FEF794FB20B1EFF308
:10253000108072B6FEE700BF12B0B0BD4EF68850F4
:10254000CEF20000016841F47001016070470000A4
:1025500080B58268D1E900E322F0770C23F007020E
:1025600042EA0C0242EA0E0C4FEA3312072AC0F884
:1025700008C009D84FF0000CDFE802F0040404049E
:102580000A1E344A604680BD4FF0010C604680BD93
:10259000BEF1050F04BF012080BD026A036A23F06B
:1025A000010303628369096923F0F00343EA01111F
:1025B00081610262002080BDD1F808C00969036A08
:1025C000026A22F001020262826922F0F00242EA0B
:1025D000011123F00A0242EA0C028161026200202A
:1025E00080BD00BFD1F808C00969036A23F0100359
:1025F00003628369026A23F4704322F0A00243EA73
:10260000013142EA0C1281610262002080BD00BFEC
:10261000D1E902C30969826843EA0C0322F47F42CC
:1026200043EA012111438160002080BD10B50446BA
:102630000068D4E902C22369016921F440511143C1
:102640000161626943EA0C01E3691143C2681943FD
:1026500049F20C639A431143C1604169A26921F4B4
:10266000407141F20043114340F48062C4F201031F
:102670009A42416102D1FEF7B1FB01E0FEF79AFBFD
:10268000E16963681922B1F5004FA0FB02011FD177
:102690005A00DB0FFDF7F0FD48F21F51C5F2EB11B8
:1026A000A0FB01235A096FF0630302FB03003223EE
:1026B00003EBC000A0FB01014FF4F87000EA111019
:1026C00000EB0210C1F3421108442168886010BD7C
:1026D0009A009B0FFDF7D0FD48F21F51C5F2EB1198
:1026E000A0FB01235A096FF0630302FB03003223AE
:1026F00003EB0010A0FB0101F02000EA511000EBF9
:102700000210C1F3431108442168886010BD000025
:10271000FEE70000FEF7F6F9FFF7BAFEFFF7E8FC68
:10272000FFF7CAFCFFF740FDFFF77AFDFFF7AAFDB0
:10273000FFF786FEFFF766FEFFF7D8FD00F002F810
:10274000FEE700002DE9F04F83B04FF47A70FEF7FA
:1027500097F800F081FF40F2080BC2F2000B0BF17A
:10276000240001F0B1F900284FF000056ED0C82018
:10277000FEF786F8FFF764FE40F2A426C2F20006D8
:102780003046FFF7CBFA40F2D40AC2F2000A3046D4
:1027900051460122FFF71EFB4FF2A510CFF2002099
:1027A0008AF8025000906946304604224FF6FF73C3
:1027B000FFF740FB9AF8020060B90120FEF760F8CD
:1027C000802D05F10105F5D30020AAF804000827A3
:1027D0000BE000BFBAF807000827000400BAAAF807
:1027E0000400B0F50C7F08BF092740F2A4250020A3
:1027F000A524C2F2000501AE8AF802000BEB8700A7
:1028000090F82410C08C8DF8051000BA000CADF8BB
:1028100006002846314604224FF6FF738DF8044027
:10282000FFF708FB0220FEF72BF8013FFF2FE5D34F
:10283000002400BF9AF80200002845D10120FEF7CD
:102840001FF8802C04F10104F4D3012540F2E000CC
:1028500040F2F532C2F20000C0F600020021FDF79E
:1028600089FF88B140F2E00440F2F536C2F200047C
:10287000C0F600062046FDF7D9FD2046002132466D
:10288000FDF778FF0028F5D140F24014C2F20004B1
:102890002046FEF715FE40F2E00040F2EC2240F246
:1028A0001041C2F20000C2F20002C4F2020145F679
:1028B0002003FDF795FF2168C86840F48042284650
:1028C000CA6003B0BDE8F08FBAF8040040F2A42853
:1028D000072500264FF2A514C2F200080DF10809E1
:1028E000B0F50C7F08BF08258AF802603BF8251078
:1028F000B0F50C7F01D2092923D0C8B2090A8DF89E
:102900000A108DF80B004046494604224FF6FF732B
:10291000ADF80840FFF78EFA002700BF9AF80200D2
:1029200040B90120FDF7ACFF802F07F10107F5D377
:102930008BE700BFBAF807000BEB850100BA000C6B
:102940004880013D0AD0BAF804008AF802603BF8DA
:102950002510B0F50C7FCED3CFE700BF002575E77B
:102960002DE9F04F85B00025C4F2020501902846FC
:1029700008210022FEF7ACF86420ADF80A0000BF81
:10298000BDF80A00411EADF80A1090B1BDF80A006A
:10299000411EADF80A1060B1BDF80A00411EADF845
:1029A0000A1030B1BDF80A00411E0028ADF80A1027
:1029B000E6D1284604210122FEF78AF86420ADF80A
:1029C0000C0000BFBDF80C00411EADF80C1090B11A
:1029D000BDF80C00411EADF80C1060B1BDF80C0044
:1029E000411EADF80C1030B1BDF80C00411E00289E
:1029F000ADF80C10E6D1284608210022FEF768F851
:102A00006420ADF80E0000BFBDF80E00411EADF809
:102A10000E1090B1BDF80E00411EADF80E1060B161
:102A2000BDF80E00411EADF80E1030B1BDF80E001D
:102A3000411E0028ADF80E10E6D1284608210122DB
:102A4000FEF746F86420ADF8100000BFBDF8100096
:102A5000411EADF8101090B1BDF81000411EADF848
:102A6000101060B1BDF81000411EADF8101030B16B
:102A7000BDF81000411E0028ADF81010E6D1284620
:102A80000421FEF71FF800906420ADF80C0000BF91
:102A9000BDF80C00411EADF80C1090B1BDF80C0053
:102AA000411EADF80C1060B1BDF80C00411EADF830
:102AB0000C1030B1BDF80C00411E0028ADF80C1010
:102AC000E6D1284608210022FEF702F86420ADF87E
:102AD0000E0000BFBDF80E00411EADF80E1090B103
:102AE000BDF80E00411EADF80E1060B1BDF80E002D
:102AF000411EADF80E1030B1BDF80E00411E002889
:102B0000ADF80E10E6D1284608210122FDF7E0FFBE
:102B10006420ADF8100000BFBDF81000411EADF8F4
:102B2000101090B1BDF81000411EADF8101060B14A
:102B3000BDF81000411EADF8101030B1BDF8100006
:102B4000411E0028ADF81010E6D128460421FDF7FB
:102B5000B9FF82466420ADF80C0000BFBDF80C0040
:102B6000411EADF80C1090B1BDF80C00411EADF83F
:102B70000C1060B1BDF80C00411EADF80C1030B166
:102B8000BDF80C00411E0028ADF80C10E6D1284617
:102B900008210022FDF79CFF6420ADF80E0000BF65
:102BA000BDF80E00411EADF80E1090B1BDF80E003C
:102BB000411EADF80E1060B1BDF80E00411EADF81B
:102BC0000E1030B1BDF80E00411E0028ADF80E10F9
:102BD000E6D1284608210122FDF77AFF6420ADF8EE
:102BE000100000BFBDF81000411EADF8101090B1EC
:102BF000BDF81000411EADF8101060B1BDF8100016
:102C0000411EADF8101030B1BDF81000411E002873
:102C1000ADF81010E6D128460421FDF753FF834696
:102C20006420ADF80C0000BFBDF80C00411EADF8EB
:102C30000C1090B1BDF80C00411EADF80C1060B145
:102C4000BDF80C00411EADF80C1030B1BDF80C0001
:102C5000411E0028ADF80C10E6D1284608210022BC
:102C6000FDF736FF6420ADF80E0000BFBDF80E0082
:102C7000411EADF80E1090B1BDF80E00411EADF82A
:102C80000E1060B1BDF80E00411EADF80E1030B14F
:102C9000BDF80E00411E0028ADF80E10E6D1284602
:102CA00008210122FDF714FF6420ADF8100000BFD9
:102CB000BDF81000411EADF8101090B1BDF8100025
:102CC000411EADF8101060B1BDF81000411EADF806
:102CD000101030B1BDF81000411E0028ADF81010E2
:102CE000E6D128460421FDF7EDFE06466420ADF846
:102CF0000C0000BFBDF80C00411EADF80C1090B1E7
:102D0000BDF80C00411EADF80C1060B1BDF80C0010
:102D1000411EADF80C1030B1BDF80C00411E00286A
:102D2000ADF80C10E6D1284608210022FDF7D0FEB0
:102D30006420ADF80E0000BFBDF80E00411EADF8D6
:102D40000E1090B1BDF80E00411EADF80E1060B12E
:102D5000BDF80E00411EADF80E1030B1BDF80E00EA
:102D6000411E0028ADF80E10E6D1284608210122A8
:102D7000FDF7AEFE6420ADF8100000BFBDF81000F6
:102D8000411EADF8101090B1BDF81000411EADF815
:102D9000101060B1BDF81000411EADF8101030B138
:102DA000BDF81000411E0028ADF81010E6D12846ED
:102DB0000421FDF787FE07466420ADF80C0000BF34
:102DC000BDF80C00411EADF80C1090B1BDF80C0020
:102DD000411EADF80C1060B1BDF80C00411EADF8FD
:102DE0000C1030B1BDF80C00411E0028ADF80C10DD
:102DF000E6D1284608210022FDF76AFE6420ADF8DE
:102E00000E0000BFBDF80E00411EADF80E1090B1CF
:102E1000BDF80E00411EADF80E1060B1BDF80E00F9
:102E2000411EADF80E1030B1BDF80E00411E002855
:102E3000ADF80E10E6D1284608210122FDF748FE24
:102E40006420ADF8100000BFBDF81000411EADF8C1
:102E5000101090B1BDF81000411EADF8101060B117
:102E6000BDF81000411EADF8101030B1BDF81000D3
:102E7000411E0028ADF81010E6D128460421FDF7C8
:102E800021FE04466420ADF80C0000BFBDF80C0024
:102E9000411EADF80C1090B1BDF80C00411EADF80C
:102EA0000C1060B1BDF80C00411EADF80C1030B133
:102EB000BDF80C00411E0028ADF80C10E6D12846E4
:102EC00008210022FDF704FE6420ADF80E0000BFCB
:102ED000BDF80E00411EADF80E1090B1BDF80E0009
:102EE000411EADF80E1060B1BDF80E00411EADF8E8
:102EF0000E1030B1BDF80E00411E0028ADF80E10C6
:102F0000E6D1284608210122FDF7E2FD6420ADF854
:102F1000100000BFBDF81000411EADF8101090B1B8
:102F2000BDF81000411EADF8101060B1BDF81000E2
:102F3000411EADF8101030B1BDF81000411E002840
:102F4000ADF81010E6D128460421FDF7BBFD804600
:102F50006420ADF80C0000BFBDF80C00411EADF8B8
:102F60000C1090B1BDF80C00411EADF80C1060B112
:102F7000BDF80C00411EADF80C1030B1BDF80C00CE
:102F8000411E0028ADF80C10E6D128460821002289
:102F9000FDF79EFD6420ADF80E0000BFBDF80E00E9
:102FA000411EADF80E1090B1BDF80E00411EADF8F7
:102FB0000E1060B1BDF80E00411EADF80E1030B11C
:102FC000BDF80E00411E0028ADF80E10E6D12846CF
:102FD00008210122FDF77CFD6420ADF8100000BF40
:102FE000BDF81000411EADF8101090B1BDF81000F2
:102FF000411EADF8101060B1BDF81000411EADF8D3
:10300000101030B1BDF81000411E0028ADF81010AE
:10301000E6D128460421FDF755FD814628460821C2
:103020000022FDF755FD6420ADF81200BDF8120036
:10303000411EADF8121090B1BDF81200411EADF85E
:10304000121060B1BDF81200411EADF8121030B17F
:10305000BDF81200411E0028ADF81210E6D1B9F1FA
:10306000000F18BF4FF001090098002818BF012079
:10307000BAF1000F18BF4FF0010A4AEA4000800081
:10308000BBF1000F18BF4FF0010B40EA4B00002EC0
:1030900018BF012630448000002F18BF012740EAE6
:1030A0004700002C18BF012420448000B8F1000F15
:1030B00018BF4FF0010840EA480000EB09040198EE
:1030C00000F0A6FBE0B205B0BDE8F08FB0B584B06B
:1030D0000024C4F202040546C20920460421FDF77B
:1030E000F7FC6420ADF80600BDF80600411EADF8FF
:1030F000061090B1BDF80600411EADF8061060B193
:10310000BDF80600411EADF8061030B1BDF806004E
:10311000411E0028ADF80610E6D120460821012204
:10312000FDF7D6FC6420ADF8080000BFBDF808002C
:10313000411EADF8081090B1BDF80800411EADF871
:10314000081060B1BDF80800411EADF8081030B19C
:10315000BDF80800411E0028ADF80810E6D1204651
:1031600008210022FDF7B4FCC5F38012204604219B
:10317000FDF7AEFC6420ADF8060000BFBDF8060008
:10318000411EADF8061090B1BDF80600411EADF825
:10319000061060B1BDF80600411EADF8061030B152
:1031A000BDF80600411E0028ADF80610E6D1204605
:1031B00008210122FDF78CFC6420ADF8080000BF57
:1031C000BDF80800411EADF8081090B1BDF8080028
:1031D000411EADF8081060B1BDF80800411EADF801
:1031E000081030B1BDF80800411E0028ADF80810E5
:1031F000E6D1204608210022FDF76AFCC5F3401203
:1032000020460421FDF764FC6420ADF8060000BFF1
:10321000BDF80600411EADF8061090B1BDF80600DD
:10322000411EADF8061060B1BDF80600411EADF8B4
:10323000061030B1BDF80600411E0028ADF806109A
:10324000E6D1204608210122FDF742FC6420ADF8BA
:10325000080000BFBDF80800411EADF8081090B18D
:10326000BDF80800411EADF8081060B1BDF80800B7
:10327000411EADF8081030B1BDF80800411E00280D
:10328000ADF80810E6D1204608210022FDF720FC09
:10329000C5F3001220460421FDF71AFC6420ADF8A6
:1032A000060000BFBDF80600411EADF8061090B143
:1032B000BDF80600411EADF8061060B1BDF806006D
:1032C000411EADF8061030B1BDF80600411E0028C1
:1032D000ADF80610E6D1204608210122FDF7F8FBE3
:1032E0006420ADF8080000BFBDF80800411EADF82D
:1032F000081090B1BDF80800411EADF8081060B18B
:10330000BDF80800411EADF8081030B1BDF8080046
:10331000411E0028ADF80810E6D120460821002201
:10332000FDF7D6FBC5F3C00220460421FDF7D0FB14
:103330006420ADF8060000BFBDF80600411EADF8E0
:10334000061090B1BDF80600411EADF8061060B140
:10335000BDF80600411EADF8061030B1BDF80600FC
:10336000411E0028ADF80610E6D1204608210122B2
:10337000FDF7AEFB6420ADF8080000BFBDF8080003
:10338000411EADF8081090B1BDF80800411EADF81F
:10339000081060B1BDF80800411EADF8081030B14A
:1033A000BDF80800411E0028ADF80810E6D12046FF
:1033B00008210022FDF78CFBC5F380022046042182
:1033C000FDF786FB6420ADF8060000BFBDF80600DF
:1033D000411EADF8061090B1BDF80600411EADF8D3
:1033E000061060B1BDF80600411EADF8061030B100
:1033F000BDF80600411E0028ADF80610E6D12046B3
:1034000008210122FDF764FB6420ADF8080000BF2D
:10341000BDF80800411EADF8081090B1BDF80800D5
:10342000411EADF8081060B1BDF80800411EADF8AE
:10343000081030B1BDF80800411E0028ADF8081092
:10344000E6D1204608210022FDF742FBC5F34002E9
:1034500020460421FDF73CFB6420ADF8060000BFC8
:10346000BDF80600411EADF8061090B1BDF806008B
:10347000411EADF8061060B1BDF80600411EADF862
:10348000061030B1BDF80600411E0028ADF8061048
:10349000E6D1204608210122FDF71AFB6420ADF891
:1034A000080000BFBDF80800411EADF8081090B13B
:1034B000BDF80800411EADF8081060B1BDF8080065
:1034C000411EADF8081030B1BDF80800411E0028BB
:1034D000ADF80810E6D1204608210022FDF7F8FAE1
:1034E00005F0010220460421FDF7F2FA6420ADF850
:1034F000060000BFBDF80600411EADF8061090B1F1
:10350000BDF80600411EADF8061060B1BDF806001A
:10351000411EADF8061030B1BDF80600411E00286E
:10352000ADF80610E6D1204608210122FDF7D0FAB9
:103530006420ADF8080000BFBDF80800411EADF8DA
:10354000081090B1BDF80800411EADF8081060B138
:10355000BDF80800411EADF8081030B1BDF80800F4
:10356000411E0028ADF80810E6D1204608210022AF
:10357000FDF7AEFA204608210022FDF7A9FA6420E3
:10358000ADF80A00BDF80A00411EADF80A1090B16E
:10359000BDF80A00411EADF80A1060B1BDF80A007E
:1035A000411EADF80A1030B1BDF80A00411E0028D6
:1035B000ADF80A10E6D1204608210122FDF788FA6D
:1035C0006420ADF80C0000BFBDF80C00411EADF842
:1035D0000C1090B1BDF80C00411EADF80C1060B19C
:1035E000BDF80C00411EADF80C1030B1BDF80C0058
:1035F000411E0028ADF80C10E6D120460421FDF74D
:1036000061FA0546204608210022FDF761FA0DB156
:1036100004B0B0BD6420ADF80E0000BFBDF80E00D0
:10362000411E0028ADF80E10F2D0BDF80E00411E6C
:103630000028ADF80E10EBD0BDF80E00411E00289A
:10364000ADF80E10E4D0BDF80E00411E0028ADF814
:103650000E10E3D1DCE70000F0B585B00020049047
:103660000420002400901120C4F202046D46019051
:10367000012602272046294602960397FDF744F9C2
:103680000820CDE9000620462946CDE90267FDF76E
:103690003BF905B0F0BD0000F0B583B00024C4F2E2
:1036A000020415460E460746204604210122FDF776
:1036B0000FFA204608210122FDF70AFA6420ADF82E
:1036C000040000BFBDF80400411EADF8041090B125
:1036D000BDF80400411EADF8041060B1BDF804004F
:1036E000411EADF8041030B1BDF80400411E0028A1
:1036F000ADF80410E6D1204604210022FDF7E8F9D8
:103700006420ADF8060000BFBDF80600411EADF80C
:10371000061090B1BDF80600411EADF8061060B16C
:10372000BDF80600411EADF8061030B1BDF8060028
:10373000411E0028ADF80610E6D1204608210022DF
:10374000FDF7C6F97F00F8B2FFF7C0FC3046FFF77F
:10375000BDFC012D08BF00F0CFF820460421012256
:10376000FDF7B6F9204608210122FDF7B1F96420E2
:10377000ADF80800BDF80800411EADF8081090B182
:10378000BDF80800411EADF8081060B1BDF8080092
:10379000411EADF8081030B1BDF80800411E0028E8
:1037A000ADF80810E6D1204604210022FDF790F97B
:1037B0006420ADF80A0000BFBDF80A00411EADF854
:1037C0000A1090B1BDF80A00411EADF80A1060B1B0
:1037D000BDF80A00411EADF80A1030B1BDF80A006C
:1037E000411E0028ADF80A10E6D12046082100222B
:1037F000FDF76EF947F00100C0B2FFF767FC00204B
:10380000FFF7AEF8044600F077F8204603B0F0BDAD
:10381000B0B582B00024C4F2020405462046082157
:103820000022FDF755F96420ADF80200BDF8020052
:10383000411EADF8021090B1BDF80200411EADF876
:10384000021060B1BDF80200411EADF8021030B1A7
:10385000BDF80200411E0028ADF80210E6D1B5FA0D
:1038600085F0420920460421FDF732F9204608215F
:103870000122FDF72DF96420ADF80400BDF8040025
:10388000411EADF8041090B1BDF80400411EADF822
:10389000041060B1BDF80400411EADF8041030B151
:1038A000BDF80400411E0028ADF80410E6D1204602
:1038B00008210022FDF70CF96420ADF8060000BFD6
:1038C000BDF80600411EADF8061090B1BDF8060027
:1038D000411EADF8061060B1BDF80600411EADF8FE
:1038E000061030B1BDF80600411E0028ADF80610E4
:1038F000E6D102B0B0BD000010B582B00024C4F221
:103900000204204604210022FDF7E2F820460821A7
:103910000022FDF7DDF86420ADF80200BDF80200DA
:10392000411EADF8021090B1BDF80200411EADF885
:10393000021060B1BDF80200411EADF8021030B1B6
:10394000BDF80200411E0028ADF80210E6D1204665
:1039500008210122FDF7BCF86420ADF8040000BF87
:10396000BDF80400411EADF8041090B1BDF804008C
:10397000411EADF8041060B1BDF80400411EADF861
:10398000041030B1BDF80400411E0028ADF8041049
:10399000E6D1204604210122FDF79AF86420ADF813
:1039A000060000BFBDF80600411EADF8061090B13C
:1039B000BDF80600411EADF8061060B1BDF8060066
:1039C000411EADF8061030B1BDF80600411E0028BA
:1039D000ADF80610E6D102B010BD0000F0B581B020
:1039E0000027C4F2020714460D4606463846042155
:1039F0000122FDF76DF8384608210122FDF768F82D
:103A00006420ADF8000000BFBDF80000411EADF815
:103A1000001090B1BDF80000411EADF8001060B17B
:103A2000BDF80000411EADF8001030B1BDF8000037
:103A3000411E0028ADF80010E6D1384604210022CE
:103A4000FDF746F86420ADF8020000BFBDF80200A3
:103A5000411EADF8021090B1BDF80200411EADF854
:103A6000021060B1BDF80200411EADF8021030B185
:103A7000BDF80200411E0028ADF80210E6D138461C
:103A800008210022FDF724F87000C0B2FFF71EFBEA
:103A90002846FFF71BFB2046FFF718FB01B0BDE8E7
:103AA000F040FFF729BF000080B5C0B2C9B20122C3
:103AB000FFF7F2FD80BD0000C0B2C9B2D2B2FFF77D
:103AC0008DBF0000FCF7DCBE2DE9FE4F0026DFF8BD
:103AD000B4940296C288A9F800204289A9F802206D
:103AE000C289A9F80420428AA9F80620C28AA9F846
:103AF0000820428BA9F80A20C28BA9F80C20428C1E
:103B0000A9F80E20C08CA9F8120034463546B246FA
:103B10004BF6EF61FE2000F03BFA03210C2000F091
:103B200037FA0A20FFF7CEFF00210C2000F030FA10
:103B300000210C2000F02CFA00210C2000F028FAC3
:103B40000A20FFF7BFFF41F2113B41F22438002168
:103B50005C20FFF7A9FFC7B2F0215C20FFF7A4FFAC
:103B6000C0B240EA0727474513D05F4511D0A7F5FB
:103B7000985013380DD00A20FFF7A4FF0AF1010076
:103B800000F0FF0ABAF10A0FE1D301200290BDE86C
:103B9000FE8FB9F8080049464FF6FF79782804D817
:103BA00009EA800546F002060AE0F02804D809EA8E
:103BB000400546F0010603E0B0F5F07F00D8054669
:103BC0008A46C988BC2904D809EA810446F0080657
:103BD0000BE0B1F5BC7F04D809EA410446F00406C5
:103BE00003E0B1F53C7F00D80C46A4F24E314A42C6
:103BF000DFF894B3A7F598512439CBF8042027D0E7
:103C000004EB0208011D01FB08F1E04A091D92FBCB
:103C1000F1F189B24FF4FA7C5346614500D961460F
:103C2000B3F804C08C4500D99980BAF804C0B2FB3F
:103C3000FCF1091F91FBF8F1091A0B1F40F6B5388A
:103C4000CBF80010434557D304294EDA042151E044
:103C500048F28831072000F09BF9BAF80810DBF829
:103C600004308A1C04EB030802FB08F3C74A1B1D3F
:103C700092FBF3F39BB24FF4FA7C5046634500D9B4
:103C80006346B0F804C09C4500D98380BAF804C0EC
:103C9000B2FBFCF0001F90FBF8F0401A831E47F6C1
:103CA0001F68CBF8000043450AD3022801DA02203E
:103CB00004E047F62063984200DD1846CBF8000088
:103CC000B2FBFCF0DBF80030001F194490FBF1F070
:103CD000001BCBF804003D2801DA3D201AE0B0F5C6
:103CE000806F17DB40F2FF3014E040F6B8339942A2
:103CF00000DD1946CBF80010B2FBFCF2DBF8003017
:103D0000121F184492FBF0F0001BCBF804002B2884
:103D1000E5DA2B20CBF80400DBF80010BAF8083005
:103D2000BAF80220891E50461944DA468A4200DD5C
:103D30004180C4F53C7101EBD17141F34F02B0F900
:103D40000A105342994201DA194602E0914200DD1D
:103D500011464181521C511A89B20191C5F5F07189
:103D600001EBD17141F34F02B0F90C10534299426B
:103D700001DA194602E0914200DD11468046818158
:103D8000121D881880B2009001211B2000F000F95C
:103D90000120019900F0FCF80220009900F0F8F8E9
:103DA0002946032000F0F4F82146042000F0F0F842
:103DB000BAF8040081B2052000F0EAF8BAF8000071
:103DC00081B2062000F0E4F84FF4B2710A2000F04E
:103DD000DFF840F2BB11082000F0DAF840F2D91108
:103DE000092000F0D5F8B8F8000020B9B8F80210A2
:103DF0000B2000F0CDF846F44C718B460D2000F0FE
:103E0000C7F82721312000F0C3F81A21322000F032
:103E1000BFF80521332000F0BBF8B8F80E103520AC
:103E200000F0B6F8A7F5985024380AD011210F20D9
:103E300000F0AEF88121472000F0AAF84FF6E771B4
:103E400059E0C920019900F0A3F8CA20009900F0B8
:103E50009FF82946CB2000F09BF82146CC2000F0AB
:103E600097F8BAF80400544681B2CD2000F090F8DB
:103E7000208881B2CE2000F08BF84FF4B271D120AF
:103E800000F086F840F2BB11CF2000F081F840F23C
:103E9000D911D02000F07CF8B8F80000444618B9D9
:103EA0006188D22000F074F859460E2000F070F8B6
:103EB0002721392000F06CF81A213A2000F068F828
:103EC00005213B2000F064F8E189362000F060F81D
:103ED000B00801D0102100E00021722000F058F855
:103EE00040F201110F2000F053F88121472000F02B
:103EF0004FF84FF6EC71482000F04AF84FF4627129
:103F0000072000F045F840F203311C2000F040F893
:103F100003212C2000F03CF8B8F800104446A9B169
:103F2000A52000F035F80221A62000F031F802218A
:103F3000A82000F02DF8E08821894843B0F5802FB3
:103F400007DAC11700EB9170801003E00021AF2069
:103F50000FE0484681B2B02000F01AF81421AE20DC
:103F600000F016F840F20111AF2000F011F861885E
:103F7000AD2000F00DF84DF6AD61FE2000F008F820
:103F8000029804E66000002000000020C0FC9B01B5
:103F900010B50C460A0A01465C20FFF78DFDE2B21F
:103FA000F021BDE810405C20FFF786BDF1EE100A5D
:103FB0004FF6FF71C0F2C03120EA010040F04070BE
:103FC000E1EE100A7047000000000000000001024E
:103FD00003040607080900000000010203040006AC
:103FE000101600061016000008400008000000200F
:103FF00060000000D4010008684000086000002054
:10400000B0600000F00100080000000000000000A7
:104010000100000002000000030000000400000096
:104020000500000006000000070000000800000076
:1040300009000000000000000100000002009001E3
:10404000030032000400BC000500780006000000F8
:104050000700000008002000090000000100000027
:08406000100000000024F40030
:040000050800019955
:00000001FF
